:020000040800F2
:10000000A0060020350200083D0200083F0200085B
:1000100041020008430200084502000800000000F9
:10002000000000000000000000000000470200087F
:1000300049020008000000004B0200084D020008C1
:100040004F0200084F0200084F0200081115000877
:100050004F0200084F0200084F0200084F0200083C
:100060004F0200084F0200084F0200084F0200082C
:100070004F0200084F0200084F0200084F0200081C
:100080004F0200084F0200084F0200084F0200080C
:100090004F0200084F0200084F0200084F020008FC
:1000A0004F0200084F0200084F0200084F020008EC
:1000B0004F0200084F0200084F0200084F020008DC
:1000C0004F0200084F0200084F0200084F020008CC
:1000D0004F0200084F0200081D1A00084F020008D6
:1000E0004F0200084F0200084F02000800F002F81B
:1000F00000F090F80AA090E8000C82448344AAF132
:100100000107DA4501D100F085F8AFF2090EBAE82F
:100110000F0013F0010F18BFFB1A43F0010318473B
:10012000FC2700001C280000103A24BF78C878C1C2
:10013000FAD8520724BF30C830C144BF04680C60ED
:10014000704700000023002400250026103A28BF35
:1001500078C1FBD8520728BF30C148BF0B60704739
:100160006E2900F03F81702900F08182662902F03B
:100170004083652902F03D83672902F03A836129B3
:1001800002F0398303681B0A28BF41F08001692906
:1001900000F0EC80642900F0E980752900F0E68029
:1001A0006F2900F00F82782900F04D82E92900F0D4
:1001B000A981E42900F0A681F52900F0A381EF29A7
:1001C00000F00C82F82900F04C820368DB0928BF9C
:1001D00041F08001632900F04D87732900F05287B8
:1001E000E32900F05D87F32900F062870020704763
:1001F0001FB500F0B3FF04000020002102F092F9C7
:10020000401C60600020002102F076F9E0601FBD14
:1002100010B510BD00F074FF1146FFF7E9FF01F0C3
:100220003BFD01F051F803B4FFF7F2FF03BC01F00E
:1002300099F800000948804709480047FEE7FEE7B3
:10024000FEE7FEE7FEE7FEE7FEE7FEE7FEE7FEE786
:1002500004480549054A064B704700004519000847
:10026000ED000008A0000020A0060020A002002051
:10027000A00200200FB41CB5084B06AA7B446946B7
:100280000090059800F0C7F804460020694600F089
:10029000D5F820461CBC5DF814FB0000BD01000031
:1002A00070477047704770B5044685690068C1069D
:1002B00001D5302600E02026C00707D070BDD4E964
:1002C000012130469047206A401C20626D1EF6D501
:1002D00070BD70B5044685690078C00707D170BD50
:1002E000D4E9012120209047206A401C20626D1E25
:1002F000F6D570BD09684A0501D540B27047C905F9
:10030000FCD500B2704709684A0501D5C0B27047F4
:10031000C905FCD580B2704770B50C460546012A68
:1003200005D02878800600D5EA69002302E0012381
:1003300005E05B1C934202D2E05C0028F9D1A86979
:10034000E618C01AA861286A184428622846FFF7F0
:10035000AAFF04E0D5E9012114F8010B9047B4424B
:10036000F8D32846FFF7B5FF70BD00002DE9F04136
:100370000646002410687529314616A510D0FFF7EF
:10038000B9FF002802DA404213A507E031688A0766
:1003900001D512A502E0490704D511A5012401E009
:1003A000FFF7B1FF00210A2206F1240709E0B0FBA4
:1003B000F2FCB0FBF2F302FB1C003030785418461C
:1003C000491C0028F3D123462A463046BDE8F041B7
:1003D00000F061BA000000002D0000002B000000BA
:1003E0002000000011680268006A530501D50870FA
:1003F0000AE0D30501D5088006E0130603D5C2172D
:10040000C1E9000200E008600120704701694A1C50
:1004100002610878704700B58FB0CDE90131002145
:10042000059105497944CDE903101146684600F06D
:1004300029F90FB000BD0000E5FFFFFF0A6802F8D0
:10044000010B0A60704700002DE9FF5F15468A46E0
:100450000446DFF8AC80F8440027D8E900103E4697
:10046000CDE9001010E03AF816106A4602A800F034
:1004700023FE411C07D02178890603D5E26939188B
:1004800091420DD80744761C2078800602D5E06999
:10049000B84205DDAE42E6DB3AF816000028E2D1AC
:1004A000A069C01BA0612046FFF7FDFED8E900103F
:1004B000CDE90010002017E03AF818106A4602A8AB
:1004C00000F0FAFDB0F1FF3F81460BD000250DF1A1
:1004D000080B05E0D4E901211BF8050090476D1CCD
:1004E0004D45F7D308F10100B0428046E4DB206AB5
:1004F000384420622046FFF7ECFEBDE8FF9F000075
:10050000A22300002DE9F0418046D21D22F007020F
:100510000025D2E90002F52915A614D0011E72F1BA
:10052000000106DA0023D0EB030063EB020211A600
:1005300008E0D8F800108B0701D50FA602E04907A4
:1005400001D50EA601251146002408F1240704E078
:1005500000F05CF930323A55641C50EA0102F7D1E0
:100560002B46324621464046BDE8F04100F093B9A3
:10057000000000002D0000002B0000002000000003
:1005800030B4002100F1240408E002F00705D2088D
:10059000303542EA4372DB086554491C52EA0305D0
:1005A000F3D10468002310A2250708D504F0200425
:1005B0000C4304D0C46901230CA2641EC46130BC86
:1005C00000F069B910B5044621461068FFF79BFE9C
:1005D00002462046BDE810400023D1E7D21D22F09C
:1005E0000701D1E90023CBE7000000003000000044
:1005F000F0B40D460188090502D5214C7C4402E087
:100600001F4C7C440E34002100F1240608E002F067
:100610000F071209E75D42EA03721B097754491C70
:1006200052EA0307F3D102780023120704D5702D94
:1006300006D009B1022311342246F0BC00F02BB9D8
:1006400001231034F8E770B504460D4621461068C2
:10065000FFF759FE024629462046BDE870400023B8
:10066000C6E7D21D22F00703D3E90023C0E70368E1
:10067000126843F0200303600823C3610023B7E737
:10068000042200002DE9F05F894604464FF0000A7D
:10069000DFF874B1FB44C0F820A02046E168884729
:1006A000002874D0252806D0D4E901219047206A7B
:1006B000401C2062F1E700265F462046E16888473B
:1006C0002028054607DB312D05D2781910F8200CBB
:1006D00008B10643F1E7B00701D526F00406C4F8D7
:1006E0001CA00027C4F818A02A2D09D0284601F024
:1006F000FBFE38B304EB8708303DC8F8185019E00A
:1007000059F8041B204604EB87029161E168884791
:10071000012F054618D1E069002820DA26F02006CE
:100720001DE0D8F8180000EB800005EB40003038E1
:10073000C8F818002046E1688847054601F0D4FE55
:100740000028EED1012F0AD02E2D08D12046E168D5
:1007500088477F1C0546022F46F02006C4DBA069AF
:10076000002803DA404246F00106A061F00701D0FC
:1007700026F010066C2D0BD0682D09D04C2D39D0E9
:100780006A2D35D0742D35D07A2D33D016E038E06F
:10079000E1682F4620468847B842054609D16C2FAC
:1007A00026D04FF48060E16806432046884705461E
:1007B00004E06C2F1AD04FF4807006430DB3A5F1FE
:1007C0004100192802D8203546F400664A462946D9
:1007D000204626604E46FFF7C3FC80B101280BD0AF
:1007E000F61D26F0070000F1080956E74020E4E76F
:1007F0008020D8E70020D6E706F104094DE7284617
:1008000052E7206ABDE8F09F9421000030B5B0F1B6
:100810000A0271F100034FEA900E4EEA817EB0EBBE
:100820000E0061EB91014FEA101E4EEA017E10EBC3
:100830000E0041EB11114FEA102E4EEA016E10EB43
:100840000E0041EB11214FEA104E4EEA014E10EB23
:100850000E0041EB1141401841F100014FEAD00078
:1008600040EA41704FEAD1014FEA810444EA9074B2
:1008700010EB800544EB01046D1944EB0404521B9A
:10088000A3414FF0000348BF0A3200D530BD401CE1
:1008900041F1000130BD2DE9F0470D4699469246E1
:1008A000044600F124080168880604D5E06921F0B7
:1008B0001001216000E00120A84201DD471B00E09B
:1008C0000027A1697A1902EB0900081AA0612078B3
:1008D000C00602D42046FFF7E6FC002608E0D4E973
:1008E00001211AF806009047206A401C761C2062FD
:1008F0004E45F4DB2078C0060AD52046FFF7D3FC2E
:1009000006E0D4E9012130209047206A401C206293
:10091000381EA7F10107F4DC07E0D4E9012118F83B
:1009200005009047206A401C2062281EA5F10105A1
:10093000F3DC2046FFF7CDFC2078000602D502202C
:10094000BDE8F0870120FBE72DE9FF4F0C461E466E
:100950004FF0FF378BB0D2E90001DDF860800A90DC
:100960008A46C1F30A5505B93D46002108464FF0B5
:100970000000BAF1000F00F4400005DA00EB80003F
:100980004FF4400101EA50004FEA9059B9F1010FCC
:1009900000DDB9460A9850EA4A000ED044F61050DD
:1009A000A5F2FF3545432F14B8F1000F1ED0754254
:1009B000291E1EDDC9F100021CE0B8F1010F4FF045
:1009C000000001D0302103E0F24305E02154401C37
:1009D000B042FBDB30460022002121540B99C1F8C4
:1009E0000880C1E900200FB0BDE8F08FBD1B6D1C71
:1009F000DEE74A4600DA694206A800F0F3FB06ABE0
:100A000093E8070003AB83E8070050460A9901F01A
:100A10008FF98DE80700A0F500501F38009003986B
:100A2000002D0ADD42F21F014A460844002303A9B3
:100A30000390684601F0F8FB09E0A0F500504A4633
:100A40001F38002303A90390684601F002FC8DE8DB
:100A500007000004000C03D04FF0FF30410800E015
:100A60001046B8F1000F03D00022009215461EE098
:100A7000751E05D4FFF7CAFE303262556D1EF9D5DA
:100A8000B3460122084302D000227F1C04E02078F4
:100A9000302801D100227F1E002A099784D01DE052
:100AA000112D07DAFFF7B2FE303262556D1C50EAA5
:100AB0000102F5D1084302D00098C8B10EE0002130
:100AC000681E05E0235C625C63542254401E491C8E
:100AD0008142F7DBAB46A81B401E0990002004F8BA
:100AE0000B000B98099AC0F80880C0E9002B7AE740
:100AF00011264FF0000857E72DE9F04F88460446CD
:100B0000D21D22F0070191B0D1E90001CDE90A011F
:100B100001F0D6FC02460B98C00F01D02D2007E053
:100B20002068810701D52B2002E0202101EAC000C6
:100B3000032A099001D0072A05DB034641462046D7
:100B400000F010FB0BE12078800601D5E06900E0A1
:100B50000620B8F1650F814606D0B8F1660F18D0AF
:100B6000B8F1670F70D131E00020B9F1110F00909A
:100B700001DB112301E009F101030AAA01A90CA874
:100B8000FFF7E2FEDDE90C70002609F1010583465E
:100B900047E001204B4600904FF000470AAA01A908
:100BA0000CA8FFF7D1FEDDE90DB00C995D460026DB
:100BB00010B909F101000D18B9EB050003D4C0F11B
:100BC000FF3609F10105A5EB09002BE0B9F1010F92
:100BD00001DA4FF001090020B9F1110F00904846E9
:100BE00001DD112300E003460AAA01A90CA8FFF7C2
:100BF000ABFEDDE90C704D460026834620780007E9
:100C00000AD4AB4500DA5D4601A8012D04DD411987
:100C100011F8011C302907D04F4502DA17F1040FF3
:100C200004DA012082460FE06D1EEEE7002F02DCA1
:100C3000ED1B3E4403E0781CA84200DD7D1CB81B80
:100C400000F1010A4FF000472078000703D4AA45BD
:100C500001DB4FF0FF3A0021B7F1004F0DF14308DF
:100C60008DF8431024D002202B23002F01DA7F427D
:100C70002D230A21021EA0F1010000DC5FB197FBC9
:100C8000F1FC97FBF1F201FB1C7C17460CF1300CD8
:100C900008F801CDEEE7A8F10100037021880905ED
:100CA00001D5452100E06521A0F1010800F8011CF3
:100CB00009980FA9A1EB0807FF1D00B101204119F8
:100CC00001EBEA70A1693844081A401EA06120783F
:100CD000C00602D42046FFF7E6FA099828B1D4E905
:100CE00001219047206A401C20622078C00622D54E
:100CF0002046FFF7D8FA1EE0002E04DBB34502DDE4
:100D000001A8805D00E03020D4E901219047206AED
:100D1000401C2062761CAAF101005FEA000A0AD199
:100D200000F01CFAC0680168405CD4E901219047DA
:100D3000206A401C2062281EA5F10105DCDC07E0CA
:100D4000D4E9012118F8010B9047206A401C206269
:100D5000381EA7F10107F3DC2046FFF7BAFA03209B
:100D600011B041E62DE9F04F04460D46D21D22F0A8
:100D7000070089B0D0E900974846394601F0A0FB4A
:100D80000246F80F01D02D2307E02068810701D526
:100D90002B2302E0202101EAC0038DF820300BB1A3
:100DA000012000E00020032A824601D0072A04DB4C
:100DB0002946204600F0D6F93FE12078800601D48C
:100DC0000D2500E0E569C7F30A560D2D49DA00212B
:100DD0004FEA175B08464FF00000002F00F4400078
:100DE00007DA00EB80004FF4400100EBD07001EA1D
:100DF00060008115012901DD4FF0FF3100224FEA2B
:100E0000850CBCF1180F06D31346ACF118004FF057
:100E10008052C24003E04FF4801323FA0CF30CF12C
:100E20000C0CBCF1200F04D3ACF1200C09FA0CF02F
:100E300001E007FA0CF000294FF0004801DD18B975
:100E40000FE00ED140450CD319EB02095F4121B9E7
:100E5000404502D19F4329EA0209BBEB175F00D04E
:100E6000761C2088000502D57B48784402E07A4849
:100E70007844193808AA302302F80A30037C0AF1B2
:100E80000101002E0AF1020A53546A4602DC4FF0B7
:100E9000300101E04FF031014FF001088DF80010F2
:100EA00002D0A6F2FF3603E059EA470100D06B4EAC
:100EB000002D02DC2178090704D54FF002082E210D
:100EC0008DF80110C44600210BE0C7F303433F0136
:100ED000C35C491C6D1E02F80830052908F10108A1
:100EE00001DA002DF1DC00210CE000EB1973491C44
:100EF0001B786D1E082902F808304FEA091908F11D
:100F0000010801DA002DF0DC21688B0602D516E01D
:100F1000A8F10108E04505DD02EB080313F8013CE8
:100F2000302BF5D0B8F1000F09DD02EB080313F800
:100F3000013C2E2B03D1090701D4A8F10108002D93
:100F400005DD3E2102F808106D1E08F10108407C05
:100F5000002E02F8080008F1010804DA2D2076427C
:100F600002F8080002E02B2002F808000A214FF4E2
:100F70007A70864208F101080BDB96FBF0F3303300
:100F800002F8083096FBF0F308F1010800FB136645
:100F900001E0642E0CDB642096FBF0F3303302F8A2
:100FA000083096FBF0F308F1010800FB136601E03E
:100FB0000A2E06DB96FBF1F0303002F8080008F14B
:100FC000010896FBF1F001FB1060303002F80800D8
:100FD000A16908F1010808EB050202EB0A00081AF2
:100FE000A0612078C00602D42046FFF75CF9216A90
:100FF00008AE01EB0A00206204E0D4E9012116F8F2
:10100000010B9047BAF1010AF7D22078C00602D549
:101010002046FFF748F96E4609E016F8010B3E2816
:101020000FD0D4E901219047206A401C2062B8F11A
:101030000108F2D22046FFF74CF909B00320BDE8C1
:10104000F08F206A2844206203E0D4E90121302097
:1010500090476D1EEBD3F8E7E219000002FCFFFF9A
:1010600010B5436913B1AFF3008001E0FFF754F905
:10107000012010BD127800F124010A7000224A708C
:101080000122EDE711684FF0FF32E9E710B543693F
:1010900013B1AFF3008001E0FFF7D6F9012010BDD6
:1010A000128800F1240182840022C2840122EDE72B
:1010B00011684FF0FF32E9E72DE9F04116460C4682
:1010C000054600F043F8036893F80101012807D0B2
:1010D000FF2C12D8185D80B101202C70BDE8F08182
:1010E000D3F807013246214603F20713C7182846F2
:1010F000BC46BDE8F041002360474FF0FF30EDE70C
:10110000754600F0EBF8AE4605006946534620F000
:101110000700854618B020B5FFF79AF8BDE82040D3
:101120004FF000064FF000074FF000084FF0000BA3
:10113000AC46ACE8C009ACE8C009ACE8C009ACE812
:10114000C00921F007018D467047000010B500F07E
:1011500005F8001D10BD00BFCD130000004870470A
:10116000580000202DE9F0411F460446032601687F
:10117000072A01F4006004DB08B116A505E016A5F6
:1011800003E008B115A500E015A521F010002060CE
:10119000A069C01EA0610FB1401EA0612046FFF7EC
:1011A00082F84FB1D4E9012138469047206A401CAB
:1011B0002062C01C206206E0206AFAE7D4E901211F
:1011C00015F8010B9047761EF8D22046FFF781F8FC
:1011D000BDE8F0814E414E006E616E00494E460002
:1011E000696E66002DE9F047814616468AB035489B
:1011F00078440DC88DE80D0032487844801C03AC5B
:101200000DC884E80D0041F69B300844372190FB5F
:10121000F1F290FBF1F5A5F1800501FB12041B3CF6
:1012200002D56442012000E00020DFF898A080464B
:101230000027FA44AAF1BE0A0EE0E0070AD03246BF
:10124000684607EB470101230AEB810101F001F831
:101250008DE8070064107F1C002CEED1194F7F44ED
:10126000AE3F19E0E80715D007EB04100DF1180A9E
:1012700090E80E008AE80E00C068F04201D198198B
:1012800008903246012306A903A800F0E2FF03AB51
:1012900083E807006D10641C002DE3D14FF00103BB
:1012A00032466946B8F1000F03A802D000F0BCFF37
:1012B00001E000F0CEFFC9E90001C9F808200AB03A
:1012C000BDE8F087EC16000010B50446AFF30080CF
:1012D0002046BDE81040FEF7A6BF0000004870475A
:1012E000380000204FF0013C50F8042B51F8043B2B
:1012F0009A4221D1A2EB0C03934313EACC1317D1EA
:1013000050F8042B51F8043B9A4215D1A2EB0C0380
:10131000934313EACC130BD150F8042B51F8043B40
:101320009A4209D1A2EB0C03934313EACC13DBD00E
:101330004FF00000704700BFD01A01BAB1FA81F136
:1013400001F0180122FA01F0CB40DBB2C0B2C01AA2
:10135000C1F120012CFA01F3D11A914311EAC31112
:10136000E6D1704701491820ABBEFEE72600020017
:101370007047000041F21801C4F20201086840F011
:1013800034000860086840F00800086040F6044136
:10139000C4F20101086820F470200860086840F475
:1013A000803008607047000083B0002002900190F8
:1013B000009042F61800C4F200000188029142F643
:1013C0001C01C4F200010988009100880190029874
:1013D000019988420DD0FFE742F61800C4F20000E0
:1013E0000088029042F61C00C4F2000000880090C1
:1013F000FFE70299009840EA014003B070470000FF
:1014000080B582B00190FFF7CFFF0090009844F2C2
:101410000751CCF22E21A0FB0110000C0090009887
:1014200048F68902C8F68802A0FB021319090901CF
:10143000A1EB1311A0EB4100013001990870DDF818
:1014400000C04FEADC0046F61741C1F2C161A0FBC3
:10145000013080084FF4B47300FB13C0A0FB0202FC
:10146000012000EB1210019A50700098C008A0FBF8
:101470000101162000EB91000199887002B080BD37
:1014800080B584B00390FFF78FFF029002984BF273
:10149000C531C9F2A211A0FB0110C00A0190019848
:1014A00018280FD3FFE701984AF6AB21CAF6AA2104
:1014B000A0FB0121090901EB4101A0EBC100039947
:1014C000087003E0019803990870FFE7029848F656
:1014D0008901C8F68801A0FB01235A091201A2EB79
:1014E0005312A0EB8200039A9070029B4BF2C5301E
:1014F000C9F2A210A3FB0020C00A4FF4616200FBF6
:101500001230A0FB011040090399487004B080BD5F
:1015100042F60400C4F200000088C00788B1FFE76B
:1015200042F60000C4F200000088C00748B1FFE79F
:1015300042F60401C4F20001088820F0010008808E
:10154000FFE742F60400C4F200000088800700288C
:1015500012D5FFE742F60000C4F2000000888007C1
:10156000002809D5FFE742F60401C4F2000108880B
:1015700020F002000880FFE77047000041F21C01E4
:10158000C4F20201086840F0C050086041F2200136
:10159000C4F20201086840F40040086047F200020B
:1015A000C4F20002106840F480701060086840F0D7
:1015B00001000860FFE741F22000C4F20200006869
:1015C0008007002801D4FFE7F5E741F22001C4F2CB
:1015D0000201086840F48070086042F60401C4F219
:1015E0000001088820F008000880FFE742F60400A8
:1015F000C4F2000000880007002801D4FFE7F5E7E7
:10160000FFE742F60400C4F20000008880060028CC
:1016100001D4FFE7F5E742F60401C4F200010888AF
:1016200040F010000880088820F00700088042F68B
:101630000802C4F200020020108042F60C02C4F23C
:10164000000247F6FF701080088820F01000088024
:10165000FFE742F60400C4F200000088800600287C
:1016600001D4FFE7F5E7704785B0049003910020AF
:101670000290019000900498807816384FF4B4716D
:101680004843029004984078C0EB0011029800EBA8
:1016900041001E38029004980078029908440138ED
:1016A0000290029845F28011C0F201014843029075
:1016B000039908784A7889784FF461635843C2EBFC
:1016C000021200EB8200084401900298019908443C
:1016D0000090FFE742F60400C4F200000088800694
:1016E000002801D4FFE7F5E742F60401C4F2000147
:1016F000088840F010000880BDF8020042F6180289
:10170000C4F200021080009842F61C02C4F20002EB
:101710001080088820F010000880FFE742F60400DF
:10172000C4F2000000888006002801D4FFE7F5E736
:1017300005B0704780B584B0002001908DF80E0090
:10174000ADF80C008DF80A00ADF80800FFF716FFA1
:1017500001980A218DF808108DF8091016218DF8CE
:101760000A108DF80C108DF80D008DF80E0002A8EF
:1017700003A9FFF779FF04B080BD000080B500F039
:1017800001F880BD84B000200390029041F2000176
:10179000C4F20201086840F480300860FFE741F2BB
:1017A0000000C4F20200006800F4003002900398C8
:1017B00001300390FFE702990020019039B9FFE75B
:1017C0000398B0F5A06018BF01200190FFE70198D1
:1017D000C0070028E3D1FFE741F20000C4F2020095
:1017E00000688003002803D5FFE70120029002E093
:1017F00000200290FFE70298012851D1FFE742F252
:101800000001C4F20201086840F010000860086896
:1018100020F007000860086840F00200086041F20C
:101820000401C4F2020100910868086008680860B9
:10183000086840F480600860086820F47C10086044
:10184000086840F4E810086041F20001C4F20201A7
:10185000086840F080700860FFE741F20000C4F2C1
:10186000020000688001002801D4FFE7F5E741F29B
:101870000401C4F20201086820F00300086008684F
:1018800040F002000860FFE741F20400C4F20200E9
:10189000006800F00C00082801D0FFE7F4E700E042
:1018A000FFE704B07047000041F20001C4F20201FA
:1018B000086840F480300860FFE741F20000C4F29D
:1018C000020000688003002801D4FFE7F5E741F239
:1018D0000001C4F20201086820F001000860FFE77F
:1018E00041F20000C4F2020000688007002801D520
:1018F000FFE7F5E741F20401C4F20201086820F0B5
:1019000003000860086840F00100086041F200022E
:10191000C4F20202106840F400201060086820F051
:10192000F000086008680860086820F4E06008605B
:1019300008680860086820F460500860086808605B
:101940007047000080B541F20002C4F20202106844
:1019500040F00100106041F20401C4F20201086885
:101960000023CFF6FF031840086010684FF6FF739E
:10197000CFF6F66318401060106820F480201060E5
:10198000086820F4FE00086041F20801C4F2020178
:101990004FF41F000860FFF7F1FE4EF60851CEF23B
:1019A00000014FF00060086080BD000080B584B089
:1019B00003900398010141F20020C0F27A00B0FBCD
:1019C000F1F1ADF80A100399B0FBF1F0BDF80A107F
:1019D000A0EB011000F03AFE019001984FF07C510D
:1019E00000F0B6FD00F016FE8DF803009DF8030030
:1019F000102809D1FFE7BDF80A000130ADF80A0050
:101A000000208DF80300FFE7BDF80A109DF80300E1
:101A100000EB011080B204B080BD000080B544F23C
:101A20000040C4F2000000888006002814D5FFE7BB
:101A300044F20C40C4F200000088800600280BD558
:101A4000FFE744F20440C4F20000008840F298012D
:101A5000C2F200010870FFE7262000F08FF880BD79
:101A600080B582B041F21C01C4F20201086840F462
:101A70000030086041F21801C4F20201086840F029
:101A80000400086040F60001C4F20101086820F477
:101A900070600860086840F430600860086820F4EE
:101AA00070400860086840F480400860262001907B
:101AB000012100F093F8019800F078F862B600F088
:101AC0000BF844F20C41C4F20001088840F40050C5
:101AD000088002B080BD000080B544F21041C4F21D
:101AE0000001088820F44050088044F20C41C4F200
:101AF0000001088820F480500880088820F4806065
:101B00000880088840F008000880088840F0040039
:101B10000880088840F0200008804FF41650FFF736
:101B200045FF44F20841C4F20001088080BD000076
:101B300082B00190ADF80210FFE7BDF80200D8B105
:101B4000FFE7FFE744F20040C4F20000008800060F
:101B5000002801D4FFE7F5E70198007844F204413A
:101B6000C4F200010880019801300190BDF8020024
:101B70000138ADF80200E0E702B0704781B08DF89F
:101B800003009DF9030000280ED4FFE79DF9031020
:101B900001F01F02012090404A094EF28021CEF24E
:101BA000000141F82200FFE701B0704781B08DF8D5
:101BB00003009DF9030000280ED4FFE79DF90310F0
:101BC00001F01F02012090404A094EF20011CEF2AE
:101BD000000141F82200FFE701B0704782B08DF8A4
:101BE000070000919DF9070000280AD4FFE700983C
:101BF00000019DF907104EF20042CEF20002885417
:101C00000BE0009800019DF8071001F00F014EF65F
:101C10001452CEF200028854FFE702B07047000071
:101C200081B000904EF21401CEF2000144F23F2048
:101C3000C0F20F0008604EF21001CEF200010868F9
:101C400020F004000860086820F002000860FFE748
:101C50000098F8B1FFE74EF21001CEF200010868DB
:101C600040F001000860FFE74EF21000CEF20000E5
:101C70000068C003002801D4FFE7F5E74EF2100129
:101C8000CEF20001086820F00100086000980138D9
:101C90000090DDE701B0704710B58AB000200990D0
:101CA000FFF702FEFFF766FBFFF744FDFFF7D8FEE4
:101CB00040F20000C2F20000079009210891FFF7EE
:101CC00037FF07980899FFF733FFFFE740F29C00C2
:101CD000C2F200000590FFF7D3FB40F29900C2F278
:101CE00000000490FFF78CFB049805990278437874
:101CF000807891F800C091F801E08C786946CC605A
:101D0000C1F808E0C1F804C0086040F20000C2F267
:101D10000000069042F6F801C0F60001FEF7AAFAAC
:101D200006983221FFF704FF0120FFF779FFCDE786
:101D30005FEA400C08BF91F0000F4FEA8C234FEA96
:101D4000C12243EA51514FEA1C5018BF00F5F04040
:101D50004FEA300018BF41F000415FEA6C5C00F0D0
:101D60002980BCF1FF3F08BF40F080407047130C52
:101D700006BF12044FF0100C4FF0000C130E04BFFE
:101D800012020CF1080C130F04BF12010CF1040C29
:101D9000930F04BF92000CF1020CD30F04BF52004A
:101DA0000CF1010C11464FF00002A0F11F00A0EB56
:101DB0000C00704711F0004F08BF704731F0004130
:101DC0003FF4D5AF0B0C06BF09044FF0100C4FF0D9
:101DD000000C0B0E04BF09020CF1080C0B0F04BF22
:101DE00009010CF1040C8B0F04BF89000CF1020CEB
:101DF000CB0F04BF49000CF1010CCCF1200322FAF7
:101E000003F341EA030102FA0CF2A0EB0C0000F12B
:101E10000100704723F07F4720F07F4C80EA0300E9
:101E200000F00040ACEB070303F57C5303F1FF0324
:101E30002DE9804909B44FEA144324EA03484FEAE4
:101E4000154B25EA0B4E0FF2042606EB13273E78BE
:101E500003FB0667C7F5000707FB06F64FEAD64601
:101E600006F102064FEA543707FB066CCCF1005C22
:101E70004FEA1C472CEA074C0CFB06F507FB06F45F
:101E800004EB15464FEA961649085FEA320234BF62
:101E900000204FF000404FEAD13706FB07FC4FEA25
:101EA0001C4C0CFB0BF7D21B03FB0CF761EB07017F
:101EB0000CFB0EF7B0EB074072EB17420CFB08F778
:101EC00034BFA2EB0742B2EB074261EB17414FEA86
:101ED0000C444FEA910706FB07FC4FEA1C4C0CFB35
:101EE0000BF7B0EBC74072EB573203FB0CF734BF74
:101EF000A2EBC742B2EBC74261EB57310CFB0EF7C6
:101F0000B0EBC70072EB57720CFB08F734BFA2EBC3
:101F1000C702B2EBC70261EB57714FEA816141EA38
:101F200092114FEA826242EA90124FEA806004EB1B
:101F3000CC04039F4FEAD13706FB07FC4FEA1C4C49
:101F40000CFB0BF7D21B03FB0CF761EB07010CFB3F
:101F50000EF7B0EB074072EB17420CFB08F734BFEB
:101F6000A2EB0742B2EB074261EB17414FEA8C55F7
:101F700004EB9C244FEA910706FB07FC4FEA1C4C3C
:101F80000CFB0BF7B0EBC74072EB573203FB0CF7BF
:101F900034BFA2EBC742B2EBC74261EB57310CFB37
:101FA0000EF7B0EBC70072EB57720CFB08F734BFAB
:101FB000A2EBC702B2EBC70261EB57714FEA816136
:101FC00041EA92114FEA826242EA90124FEA80603F
:101FD00015EB4C2544F100044FEAD13706FB07FC12
:101FE0004FEA1C4C0CFB0BF7D21B03FB0CF761EB0D
:101FF00007010CFB0EF7B0EB074072EB17420CFB2E
:1020000008F734BFA2EB0742B2EB074261EB17417E
:102010004FEA813141EA92414FEA823242EA9042EC
:102020004FEA80304FEA0C7615EB1C1544F10004A2
:1020300048EA03434EEA0B484FF0000EB2EB080C9F
:1020400071EB030724BF624639464EEB0E0E4FF08C
:10205000000B0018524149414BEB0B0BB2EB080C43
:1020600071EB03077BF1000B24BF624639464EEB50
:102070000E0E4FF0000B0018524149414BEB0B0B79
:10208000B2EB080C71EB03077BF1000B24BF624637
:1020900039464EEB0E0E51EA020718BF46F0010614
:1020A00016EB0E7655F1000254F1000103D5BDE8A0
:1020B0008901BDE80088BDE88901BDE80048B6197E
:1020C000524141EB0101A3F10103704780807F7E03
:1020D0007D7C7B7A7978777676757473727171709E
:1020E0006F6E6E6D6C6C6B6A6A6968686766666550
:1020F0006464636362616160605F5F5E5E5D5D5CDE
:102100005C5B5B5A5A59595858575756565555554E
:102110005454535352525251515050504F4F4F4EAE
:102120004E4D4D4D4C4C4C4B4B4B4A4A4A494949FC
:10213000484848474747474646464545454444443E
:102140004443434343424242424141419C46002B67
:1021500030D477002BD04FEA37071CB503B44FF0CB
:1021600010004FF01001BAF1000F06D0BCF1000FC3
:10217000DCBF40F0080040F008014FF000000FBC49
:10218000BDE810400BF1010BBBF1010F08BF5FEA86
:10219000170722BF12F1010211F101014FF00041B6
:1021A00043F1000300F0004043EA00007047F9D318
:1021B0005708D0E746EA06464FEA164613F1400FA5
:1021C0001FDD13F1200FDFBF16430A460021203325
:1021D0005B42BED0C3F1200746EA06464FEA1646E8
:1021E00002FA07F746EA070622FA03F2C3F12007CC
:1021F00001FA07F742EA070221FA03F14FF0000360
:10220000A7E746EA020646EA06464FEA164646EAC7
:102210000106BCBF46EA0646360C4FF000034FF0FD
:1022200000024FF0000194E72DE9804C70B49A460B
:10223000934691E8380007C831EA400C48BF34EAB9
:10224000430C03D5FFF7E6FDFFF780FFF0BCBDE8C8
:10225000008C2DE9804C70B49A46934691E8380082
:1022600007C810F0804F08BF13F0804F03D100F073
:1022700005F8FFF76BFFF0BCBDE8008C20F07F474E
:1022800023F07F4C80EA030000F0004007EB0C03D2
:10229000A3F57C53A3F1FE0392F0000F00F0B3808E
:1022A00095F0000F00F077802DE901494FEA1140C9
:1022B00021EA00484FEA144624EA064700FB06FCE0
:1022C00008FB06F607FB08F818EB06484CEB164C23
:1022D00000FB07F718EB07484CEB17404FEA124B8F
:1022E00022EA0B4E4FEA154625EA06470BFB06FC91
:1022F0000EFB06F607FB0EFE1EEB064E4CEB164CD5
:102300000BFB07F71EEB074E4CEB174B18EB0B08BC
:1023100040F1000018EB0E0B58EB000840F10000F4
:102320008F1A4FF000014FF000063CBFC943661BF7
:1023300014BFB5EB040C00213CBFC943F61B4FEAA8
:10234000174427EA04454FEA1C472CEA074C04FBD4
:10235000076205FB07F70CFB05F616EB074642EB99
:10236000174204FB0CFC16EB0C4642EB1C421BEB29
:10237000060658EB020241414EEA8E0E46EA9E06E0
:1023800001D5BDE80189B619524141EB0101A3F124
:102390000103BDE801894FEA144524EA05464FEAE6
:1023A000114721EA074C05FB07F406FB07F70CFB76
:1023B00006F111EB074144EB174405FB0CFC11EB54
:1023C0000C4144EB1C444FEA124722EA074C05FB40
:1023D00007F206FB07F70CFB06F616EB074642EB87
:1023E000174205FB0CFC16EB0C4642EB1C456A1829
:1023F00054F1000148BF7047B619524141EB010149
:10240000A3F10103704795F0000F37D04FEA114256
:1024100021EA02464FEA144724EA074C02FB07F17F
:1024200006FB07F70CFB06F414EB074441EB1741DE
:1024300002FB0CFC14EB0C4441EB1C414FEA15472A
:1024400025EA074C02FB07F506FB07F70CFB06F62F
:1024500016EB074645EB174502FB0CFC16EB0C464A
:1024600045EB1C42121951F1000148BF7047B619E3
:10247000524141EB0101A3F1010370474FEA1445BA
:1024800024EA05464FEA114721EA074C05FB07F10C
:1024900006FB07F70CFB06F212EB074241EB174174
:1024A00005FB0CFC12EB0C4251EB1C414FF00006FB
:1024B00048BF7047921841EB0101A3F10103704737
:1024C000490050EAC12018BF04204A0D18BF40F04F
:1024D000010040F2FF72B2EB515F08BF40F0020012
:1024E000012808BF0520704730380A2801D2012092
:1024F000704700207047000010B500290AD0087806
:10250000002807D005487844FEF7ECFE002801D0EB
:10251000002010BD0248784410BD000036040000C1
:102520002E04000010B500290AD00878002807D032
:1025300005487844FEF7D6FE002801D0002010BDE3
:102540000248784410BD0000260400001E0400006C
:1025500090EA010F48BF81F0004100F1DC80421A8F
:102560003CBF801A89184FEAD052A2EBD1534FF0EA
:102570007F4C1CEA410F18BF9CEA026F00F03B80C1
:102580004FF0004C4CEA00204CEA012121FA03FCF8
:1025900010EB0C0C1ED202F1FF325FEA1C2040EB64
:1025A000C25038BF70471CF07F0F4FEA400C18BF75
:1025B000BCF17F4F38BF7047C3F12003994008BF7B
:1025C00020F00100BCF17F4F38BF7047A0F1C04040
:1025D00000F095B84FEA3C00000A40EBC25028BF1B
:1025E0001CF0FF0F4FEA400CE6D018BFBCF17F4F44
:1025F00038BF7047EAE79CEA026F05D010EA5C0F2B
:1026000008BF00F00040704710B500F032F800BF7E
:1026100064FBBE3E41000B0ED3F19E0208D950F47C
:1026200000034FEA032323FA02F048BF40427047F9
:1026300010B500F01EF800BF4992248000207047BA
:102640006FF0004282EA200070470000B0FA80F389
:1026500010FA03F2C3F19D030AD0D90501EB122051
:10266000530638BF704700F1010008BF20F0010099
:1026700070470EF1020E2EF0030E5EF8044B24425A
:1026800004D44FEA4102B2F17F4F11D84FEA400320
:10269000B3F17F4F0CD80ED14FEAD07C0CEB4C0C31
:1026A0000CF1020CB2F17F4F08BF4CEBD17C04E07F
:1026B0004FF0080C01E04FEAD17C0CEB4C0324FAFC
:1026C00003F404F00704B4F1040C06D20EEB840CFE
:1026D000BDE810404CF0010C6047DFE80CF0070843
:1026E00002024FF00040A0F5800010BD08464200F5
:1026F00018BFD2F1807288BF00F0004010BDFF21EA
:1027000041EAD050C005704790EA010F48BF81F000
:1027100000413FF524AF421A04D882F00042A0EBFA
:10272000020011444FEAD052A2EBD1534FF07F4C3C
:102730001CEA410F18BF9CEA026F4AD04FF0004CD0
:102740004CEA00204CEA012121FA03FCB0EB0C0C0E
:102750000FD412F0FE0F36D05FEA4C001DD50012E8
:1027600040EBC25038BF70471CF03F0F18BF704796
:102770000BE05FEA1C20A2F1010240EBC25038BF1F
:1027800070471CF07F0F18BF7047C3F120039940BA
:1027900014BF401E20F0010070474FEA122380084A
:1027A00008BF7047B0FA80FCA2EB0C02CCF1280CF9
:1027B00060FA0CF093EA122F04BF00EBC25070478E
:1027C0004FEAC3707047130A5FEADC1008BF704716
:1027D000F6E79CEA026F04D010EA5C0F08BF002005
:1027E000704710B5FFF745FF40DFF63E81F000402F
:1027F0007047FEF781B9FEF7B5BA0000000000008F
:102800000000000030313233343536373839414238
:102810004344454640305800303132333435363742
:1028200038396162636465664030780004000008EE
:1028300000000000000000020001000010303132F2
:1028400033343536373839616263646566787000D1
:1028500030313233343536373839414243444546D6
:102860005850000002400000000000A000000000DE
:1028700005400000000000C8000000000C400000FF
:102880000000409C00000000194000000020BCBE79
:102890000000000034400000BFC91B8E000000048F
:1028A000B5400000504BCFD06607E2CF01000000DA
:1028B0006C4100003E8251AADFEEA7340100000007
:1028C000D9420000DCB5A0E23A301F97FFFFFFFFBE
:1028D000B4450000FD25A0C8E9A3C14FFFFFFFFFDD
:1028E000FF3F00000000008000000000FF3F0000EC
:1028F0000000008000000000444154453A20256457
:102900003A25643A2564202D2054494D453A202526
:10291000643A25643A2564200A000000682A000809
:102920000000002034000000280100089C2A000854
:102930003800002068060000440100081C00000068
:1029400043000000F8FFFFFF0C0000000E00000035
:102950000F0000002E0000001001000043000000E6
:10296000F8FFFFFF004040404040404040404141B0
:102970004141414040404040404040404040404054
:1029800040404040400502020202020202020202EE
:1029900002020202022020202020202020202002EB
:1029A000020202020202909090909090101010107B
:1029B0001010101010101010101010101010101017
:1029C00002020202020288888888888808080808AB
:1029D0000808080808080808080808080808080877
:1029E000020202024000000000000000000000009F
:1029F00000000000000000000000000000000000D7
:102A000000000000000000000000000000000000C6
:102A100000000000000000000000000000000000B6
:102A200000000000000000000000000000000000A6
:102A30000000000000000000000000000000000096
:102A40000000000000000000000000000000000086
:102A50000000000000000000000000000000000076
:102A60000000000000000000446174613A20303032
:102A70003A30303A3030202D2054494D453A2030FC
:102A8000303A30303A3030000000000000000000E2
:0C2A90000000000000000000000000003A
:0400000508000235B8
:00000001FF
